:20000000DD213412FD217856DDF9FDF9DD7E05FD46FDDD710AFD7200DD360142ED4B0040AF
:20002000ED5B0240DD2A0640FD2A0840ED430050ED530250DD220650FD220850ED57ED5F0C
:20004000ED47ED4FDDE5FDE5DDE1FDE108D9DDE3FDE3DD09DD19DD29DD39FD09FD19FD2935
:20006000FD39DD23DD2BFD23FD2BED4AED5AED6AED7AED42ED52ED62ED72DD3403DD350379
:20008000FD34FFFD35FFDD8602DD8E02DD9602DD9E02DDA602DDAE02DDB602DDBE02DDA674
:2000A00004DDB604DDAE04DDBE04FDA604FDB604FDAE04FDBE04DD9604FD9604DD7CDD7DEA
:2000C000DD44DD4DDD2610DD2E20FD2630FD2E40DD24DD25DD2CDD2DFD24FD25FD2CFD2D2D
:2000E000DD84DD8DDD94DD9DDDA4DDADFDB4FDBDDDA4DDA5DDB4DDB5DDACDDADDDBCDDBD68
:20010000FDA4FDA5FDB4FDB5FDACFDADFDBCFDBDDD94DD95CB00CB09CB12CB1BCB24CB2D47
:20012000CB37CB38CB06CB0ECB16CB1ECB26CB2ECB36CB3ECB47CB58CB7ECBC1CBEECB8F35
:20014000CBB2DDCB0506FDCBFE0EDDCB0116FDCB031EDDCB0026FDCB072EDDCB0236FDCB80
:20016000FF3EDDCB0556FDCBFD66DDCB00FEFDCB06CEDDCBFF9EFDCB028618FE28FC20FEE5
:2001800038FE30FE10F4DDE9FDE9ED46ED56ED5EED4DED45EDA0EDB0EDA8EDB8EDB1EDA986
:2001A000EDB9EDA2EDB2EDAAEDBAEDA3EDB3EDABEDBBDBC0D380ED40ED48ED50ED58ED609E
:1801C000ED68ED78ED41ED49ED51ED59ED61ED69ED79ED44ED6FED679A
:00000001FF
